:020000040000fa
:080000000002040000000000f2
:020000040000fa
:04000800c80200002a
:020000040000fa
:04000c00c802000026
:020000040000fa
:04001000c802000022
:020000040000fa
:04001400c80200001e
:020000040000fa
:04001800c80200001a
:020000040000fa
:04001c00c802000016
:020000040000fa
:04002000c802000012
:020000040000fa
:04002400c80200000e
:020000040000fa
:04002800c80200000a
:020000040000fa
:04002c00c802000006
:020000040000fa
:04003000c802000002
:020000040000fa
:04003400c8020000fe
:020000040000fa
:04003800c8020000fa
:020000040000fa
:04003c00c8020000f6
:020000040000fa
:04004000c8020000f2
:020000040000fa
:04004400c8020000ee
:020000040000fa
:04004800c8020000ea
:020000040000fa
:04004c00c8020000e6
:020000040000fa
:04005000c8020000e2
:020000040000fa
:04005400c8020000de
:020000040000fa
:04005800c8020000da
:020000040000fa
:04005c00c8020000d6
:020000040000fa
:04006000c8020000d2
:020000040000fa
:04006400c8020000ce
:020000040000fa
:04006800c8020000ca
:020000040000fa
:04006c00c8020000c6
:020000040000fa
:04007000c8020000c2
:020000040000fa
:04007400c8020000be
:020000040000fa
:04007800c8020000ba
:020000040000fa
:04007c00c8020000b6
:020000040000fa
:04008000c8020000b2
:020000040000fa
:04008400c8020000ae
:020000040000fa
:04008800c8020000aa
:020000040000fa
:04008c00c8020000a6
:020000040000fa
:04009000c8020000a2
:020000040000fa
:04009400c80200009e
:020000040000fa
:04009800c80200009a
:020000040000fa
:04009c00c802000096
:020000040000fa
:0400a000c802000092
:020000040000fa
:0400a400c80200008e
:020000040000fa
:0400a800c80200008a
:020000040000fa
:0400ac00c802000086
:020000040000fa
:0400b000c802000082
:020000040000fa
:0400b400c80200007e
:020000040000fa
:0400b800c80200007a
:020000040000fa
:0400bc00c802000076
:020000040000fa
:0400c000c802000072
:020000040000fa
:0400c400c80200006e
:020000040000fa
:0400c800c80200006a
:020000040000fa
:0400cc00c802000066
:020000040000fa
:0400d000c802000062
:020000040000fa
:0400d400c80200005e
:020000040000fa
:0400d800c80200005a
:020000040000fa
:0400dc00c802000056
:020000040000fa
:0400e000c802000052
:020000040000fa
:0400e400c80200004e
:020000040000fa
:0400e800c80200004a
:020000040000fa
:0400ec00c802000046
:020000040000fa
:0400f000c802000042
:020000040000fa
:0400f400c80200003e
:020000040000fa
:0400f800c80200003a
:020000040000fa
:0400fc00c802000036
:020000040000fa
:04010000c802000031
:020000040000fa
:04010400c80200002d
:020000040000fa
:04010800c802000029
:020000040000fa
:04010c00c802000025
:020000040000fa
:04011000c802000021
:020000040000fa
:04011400c80200001d
:020000040000fa
:04011800c802000019
:020000040000fa
:04011c00c802000015
:020000040000fa
:04012000c802000011
:020000040000fa
:04012400c80200000d
:020000040000fa
:04012800c802000009
:020000040000fa
:04012c00c802000005
:020000040000fa
:04013000c802000001
:020000040000fa
:04013400c8020000fd
:020000040000fa
:04013800c8020000f9
:020000040000fa
:04013c00c8020000f5
:020000040000fa
:04014000c8020000f1
:020000040000fa
:04014400c8020000ed
:020000040000fa
:04014800c8020000e9
:020000040000fa
:04014c00c8020000e5
:020000040000fa
:04015000c8020000e1
:020000040000fa
:04015400c8020000dd
:020000040000fa
:04015800c8020000d9
:020000040000fa
:04015c00c8020000d5
:020000040000fa
:04016000c8020000d1
:020000040000fa
:04016400c8020000cd
:020000040000fa
:04020800c802000028
:020000040000fa
:04020c00c802000024
:020000040000fa
:04021000c802000020
:020000040000fa
:04021400c80200001c
:020000040000fa
:04021800c802000018
:020000040000fa
:04021c00c802000014
:020000040000fa
:04022000c802000010
:020000040000fa
:04022400c80200000c
:020000040000fa
:04022800c802000008
:020000040000fa
:04022c00c802000004
:020000040000fa
:04023000c802000000
:020000040000fa
:04023400c8020000fc
:020000040000fa
:04023800c8020000f8
:020000040000fa
:04023c00c8020000f4
:020000040000fa
:04024000c8020000f0
:020000040000fa
:04024400c8020000ec
:020000040000fa
:04024800c8020000e8
:020000040000fa
:04024c00c8020000e4
:020000040000fa
:04025000c8020000e0
:020000040000fa
:04025400c8020000dc
:020000040000fa
:04025800c8020000d8
:020000040000fa
:04025c00c8020000d4
:020000040000fa
:04026000c8020000d0
:020000040000fa
:04026400c8020000cc
:020000040000fa
:04026800c8020000c8
:020000040000fa
:04026c00c8020000c4
:020000040000fa
:04027000c8020000c0
:020000040000fa
:04027400c8020000bc
:020000040000fa
:04027800c8020000b8
:020000040000fa
:04027c00c8020000b4
:020000040000fa
:04028000c8020000b0
:020000040000fa
:04028400c8020000ac
:020000040000fa
:04028800c8020000a8
:020000040000fa
:04028c00c8020000a4
:020000040000fa
:04029000c8020000a0
:020000040000fa
:04029400c80200009c
:020000040000fa
:04029800c802000098
:020000040000fa
:04029c00c802000094
:020000040000fa
:0402a000c802000090
:020000040000fa
:0402a400c80200008c
:020000040000fa
:0402a800c802000088
:020000040000fa
:0402ac00c802000084
:020000040000fa
:0402b000c802000080
:020000040000fa
:0402b400c80200007c
:020000040000fa
:0402b800c802000078
:020000040000fa
:0402bc00c802000074
:020000040000fa
:0402c000c802000070
:020000040000fa
:0402c400c80200006c
:020000040000fa
:0402c800c802000068
:020000040000fa
:0402cc00c802000064
:020000040000fa
:0402d000c802000060
:020000040000fa
:0402d400c80200005c
:020000040000fa
:0402d800c802000058
:020000040000fa
:0402dc00c802000054
:020000040000fa
:0402e000c802000050
:020000040000fa
:0402e400c80200004c
:020000040000fa
:0402e800c802000048
:020000040000fa
:0402ec00c802000044
:020000040000fa
:0402f000c802000040
:020000040000fa
:0402f400c80200003c
:020000040000fa
:0402f800c802000038
:020000040000fa
:0402fc00c802000034
:020000040000fa
:04030000c80200002f
:020000040000fa
:04030400c80200002b
:020000040000fa
:04030800c802000027
:020000040000fa
:04030c00c802000023
:020000040000fa
:04031000c80200001f
:020000040000fa
:04031400c80200001b
:020000040000fa
:04031800c802000017
:020000040000fa
:04031c00c802000013
:020000040000fa
:04032000c80200000f
:020000040000fa
:04032400c80200000b
:020000040000fa
:04032800c802000007
:020000040000fa
:04032c00c802000003
:020000040000fa
:04033000c8020000ff
:020000040000fa
:04033400c8020000fb
:020000040000fa
:04033800c8020000f7
:020000040000fa
:04033c00c8020000f3
:020000040000fa
:04034000c8020000ef
:020000040000fa
:04034400c8020000eb
:020000040000fa
:04034800c8020000e7
:020000040000fa
:04034c00c8020000e3
:020000040000fa
:04035000c8020000df
:020000040000fa
:04035400c8020000db
:020000040000fa
:04035800c8020000d7
:020000040000fa
:04035c00c8020000d3
:020000040000fa
:04036000c8020000cf
:020000040000fa
:04036400c8020000cb
:020000040000fa
:100400000f8020000e7f24000e01880000000000f5
:10041000000020000000e000020032000001200087
:1004200020028800140007005b0007000000e000c5
:1004300003003a0000002000010020000200370005
:100440000000200001002000810f70000100320038
:1004500014000700000020000000e000020032004d
:100460000000020000000000b00a020000000000ce
:100470000040da000000fe004440a9000000200017
:100480000000e0000300320000002000a00188000e
:100490004440a800000006008a1f78008b1f7800e7
:1004a0000000060091018800800478000000eb0045
:1004b0001a003700e284440032a0b4009905ba0063
:1004c000e284440032a0b4009906ba00e2844400f9
:1004d00032a0b4000006eb00476fde00fd07b2005b
:1004e000636ce10003003a00ebff07000000eb0043
:1004f0000a003700606ce10004003a00005deb0088
:100500008b05e900fdff3e00040037006168e10053
:10051000010032000086eb000b00070019c7ba008b
:100520001905ba000e04e00003003a000a00e000da
:10053000e0ff3a0000000600fe07b2009e018800be
:100540008a047800f5ff3700395dba008b05e900b1
:100550000c003200295dba008b05e900080032006a
:100560000c00e00003003a00e284440032a0b40032
:10057000f5ff370019ddba008b05e900faff3a00f4
:100580008904e800e184440032a0b40000000600c1
:0c0590000040da000000fe000000050042
:020000040000fa
:10059c000400fa00000f7800110798001e0090006c
:1005ac0061006000100798001e0078006101b9001e
:1005bc00e0ff2f00f1ff2f00020040008380480075
:1005cc008201200003002000820f5000838f58000e
:1005dc0013013e00006001001800370022003700b4
:1005ec002d00370037003700420037004d00370030
:1005fc000b01370057003700620037006d003700e1
:10060c007800370006013700820037008d00370074
:10061c0098003700a3003700ae0037000001370008
:10062c00ff003700b7003700c2003700cd0037009d
:10063c00d8003700e3003700ee0037001e009000b2
:10064c0000407800614060000080fb0061006000a9
:10065c0012168000e1ff2f00810061000100700084
:10066c0010168800ee0037001e0090000040780045
:10067c00614060000080fb006100600000004000f1
:10068c0012168000d1ff2f00810061000100700064
:10069c0010168800e20037001e0090000040780021
:1006ac00614060000080fb00610060005216800019
:1006bc00e1ff2f00810061000100700050168800de
:1006cc00d70037001e0090000040780061406000a9
:1006dc000080fb00610060000000400052168000aa
:1006ec00d1ff2f00810061000100700050168800be
:1006fc00cb0037001e009000004078006140600085
:10070c000080fb00610060004200dd00521680009a
:10071c00b1ff2f00810061000100700050168800ad
:10072c00bf0037001e009000004078006140600060
:10073c000080fb00610060004300dd005216800069
:10074c0071ff2f00810061000100700050168800bd
:10075c00b30037001e00900000407800614060003c
:10076c000080fb00610060004200dd00121680007a
:10077c00b1ff2f008100610001007000101688008d
:10078c00a70037001e009000004078006140600018
:10079c000080fb00610060004300dd001216800049
:1007ac0071ff2f008100610001007000101688009d
:1007bc009b0037001e0090000040780061406000f4
:1007cc000080fb00610060004400dd0052168000d8
:1007dc00f1fe2f00810061000100700050168800ae
:1007ec008f0037001e0090000040780061406000d0
:1007fc000080fb00610060004400dd0012168000e8
:10080c00f1fe2f00810061000100700010168800bd
:10081c00830037001e0090000040780061406000ab
:10082c000080fb00610060004500dd005216800076
:10083c00f1fd2f008100610001007000501688004e
:10084c00770037001e009000004078006140600087
:10085c000080fb00610060004600dd005216800045
:10086c00f1fb2f0081006100010070005016880020
:10087c006b0037001e009000004078006140600063
:10088c000080fb00610060004700dd005216800014
:10089c00f1f72f00810061000100700050168800f4
:1008ac005f0037001e00900000407800614060003f
:1008bc000080fb00610060004800dd0052168000e3
:1008cc00f1ef2f00810061000100700050168800cc
:1008dc00530037001e00900000407800614060001b
:1008ec000080fb00610060004900dd0052168000b2
:1008fc00f1df2f00810061000100700050168800ac
:10090c00470037001e0090000040780061406000f6
:10091c000080fb00610060004a00dd005216800080
:10092c00f1bf2f008100610001007000501688009b
:10093c003b0037001e0090000040780061406000d2
:10094c000080fb00610060004b00dd00521680004f
:10095c00f17f2f00810061000100700050168800ab
:10096c002f0037001e0090000040780061406000ae
:10097c000080fb00610060004c00dd00521680001e
:10098c00f1ff2e00810061000100700050168800fc
:10099c00230037001e00900000407800614060008a
:1009ac000080fb00610060004d00dd0052168000ed
:1009bc00f1ff2d00810061000100700050168800cd
:1009cc00170037001e009000004078006140600066
:1009dc000080fb00610060004e00dd0052168000bc
:1009ec00f1ff2b008100610001007000501688009f
:1009fc000b0037001e009000004078006140600042
:100a0c000080fb004f00dd0052168000f1ff270034
:100a1c008100610001007000501688000000000089
:100a2c000080fa00000006000400fa00100798008d
:100a3c000000eb00000f78001e0090006101b9006f
:100a4c00e0ff2f00f1ff2f000200400083804800e0
:100a5c008201200003002000820f5000838f580079
:100a6c0098003e0000600100180037001d003700a0
:100a7c0022003700270037002c00370031003700e8
:100a8c0090003700350037003a0037003f00370040
:100a9c00440037008b003700480037004d0037000a
:100aac0052003700570037005c00370085003700d4
:100abc00840037005f00370064003700690037009e
:100acc006e00370073003700780037001016800076
:100adc0000407800614060000080fb00000f78004f
:100aec0078003700101680000000d10061406000d3
:100afc000080fb00000f7800720037005016800059
:100b0c0000407800614060000080fb00000f78001e
:100b1c006c003700501680000000d100614060006e
:100b2c000080fb00000f7800660037005016800034
:100b3c004200de00614060000080fb00000f780086
:100b4c0060003700501680004300de0061406000fa
:100b5c000080fb00000f78005a0037001016800050
:100b6c004200de00614060000080fb00000f780056
:100b7c0054003700101680004300de006140600016
:100b8c000080fb00000f78004e00370050168000ec
:100b9c004400de00614060000080fb00000f780024
:100bac0048003700101680004400de0061406000f1
:100bbc000080fb00000f78004200370050168000c8
:100bcc004500de00614060000080fb00000f7800f3
:100bdc003c003700501680004600de00614060008b
:100bec000080fb00000f78003600370050168000a4
:100bfc004700de00614060000080fb00000f7800c1
:100c0c0030003700501680004800de006140600064
:100c1c000080fb00000f78002a003700501680007f
:100c2c004900de00614060000080fb00000f78008e
:100c3c0024003700501680004a00de00614060003e
:100c4c000080fb00000f78001e003700501680005b
:100c5c004b00de00614060000080fb00000f78005c
:100c6c0018003700501680004c00de006140600018
:100c7c000080fb00000f7800120037005016800037
:100c8c004d00de00614060000080fb00000f78002a
:100c9c000c003700501680004e00de0061406000f2
:100cac000080fb00000f7800060037005016800013
:100cbc004f00de00004078000080fb00000f780041
:100ccc00000000001e0078000080fa000000060002
:100cdc000200fa00000f78000080fa000000060005
:100cec000400fa00100798000000eb00000f7800d9
:100cfc001e0078000080fa00000006000000fa00d8
:100d0c000080eb0060198800c022ef00c822ef00c1
:100d1c006820ef006a20ef000080fa000000060057
:100d2c000400fa00000f7800214798003247980021
:100d3c00ae40900040c6b30080cf5000bc003a00db
:100d4c00be409000f0c6b30080cf50005a003a006d
:100d5c001e0078006101b900e0ff2f00f1ff2f00a9
:100d6c000200400083804800820120000300200024
:100d7c00820f5000838f5800f9003e000060010084
:100d8c00180037001a0037001c0037001e0037000f
:100d9c002000370022003700f30037002300370013
:100dac00240037002500370026003700ee003700fe
:100dbc0026003700270037002800370029003700ad
:100dcc002a003700e8003700e70037002900370019
:100ddc002a0037002b0037002d0037002f0037007a
:100dec00310037002c03a800c002a90031003700e5
:100dfc002c23a800c022a9002e0037002c43a800e9
:100e0c00c802a9002b0037002c63a800c822a90037
:100e1c00280037002c83a800c842a9002500370001
:100e2c002ca3a800c862a90022003700c042a90068
:100e3c0020003700c062a9001e003700c882a9003c
:100e4c001c003700c082a9001a003700c8a2a900f4
:100e5c0018003700c8c2a90016003700c8e2a90064
:100e6c0014003700c902a90012003700c922a900da
:100e7c0010003700c942a9000e003700c962a90052
:100e8c000c0037002d83a800c982a9000900370087
:100e9c002d63a800c9a2a900060037002d43a800a5
:100eac00c9c2a900030037002d23a800c9e2a9007c
:100ebc0000000000b3003700be40900090c6b300a5
:100ecc0080cf5000aa003a001e0078006101b900e2
:100edc00e0ff2f00f1ff2f0002004000838048004c
:100eec008201200003002000820f5000838f5800e5
:100efc00a1003e0000600100180037001a00370006
:100f0c001c0037001e00370020003700220037007d
:100f1c009b003700230037002400370025003700e2
:100f2c0026003700960037002600370027003700d0
:100f3c0028003700290037002a00370090003700be
:100f4c008f003700290037002a0037002b003700ac
:100f5c002d0037002f003700320037002c03a8007b
:100f6c00c002a800870037002c23a800c022a800cc
:100f7c00840037002c43a800c802a8008100370069
:100f8c002c63a800c822a8007e0037002c83a80080
:100f9c00c842a8007b0037002ca3a800c862a80098
:100fac0078003700c042a80076003700c062a80065
:100fbc0074003700c882a80072003700c082a800f5
:100fcc0070003700c8a2a8006e003700c8c2a80085
:100fdc006c003700c8e2a8006a003700c902a800fc
:100fec0068003700c922a80066003700c942a80073
:100ffc0064003700c962a800620037002d83a80086
:10100c00c982a8005f0037002d63a800c9a2a80000
:10101c005c0037002d43a800c9c2a80000000000e6
:10102c00580037002d23a800c9e2a800550037004e
:10103c00ae40900010c6b30080cf500051003a0073
:10104c00be40900090c6b30080cf50004d003a00d7
:10105c001e0078006101b900e0ff2f00f1ff2f00a6
:10106c000200400083804800820120000300200021
:10107c00820f5000838f580042003e000060010038
:10108c00180037001a0037001c0037001e0037000c
:10109c0020003700220037003a00370039003700b3
:1010ac00380037003700370036003700350037007e
:1010bc00340037003300370032003700310037007e
:1010cc00300037002f0037002e0037002d0037007e
:1010dc002c003700150037001700370019003700b7
:1010ec001b0037002c03a900c002a8002500370004
:1010fc002c23a900c022a800220037002c43a900f1
:10110c00c802a8001f0037002c63a900c822a80041
:10111c001c0037002c83a900c842a8001900370016
:10112c002ca3a900c862a800160037002d83a900c3
:10113c00c982a800130037002d63a900c9a2a8001a
:10114c00100037002d43a900c9c2a8000d003700bc
:10115c002d23a900c9e2a8000000000009003700f7
:10116c0000000000070037000000000005003700f9
:10117c0000000000030037000000000001003700f1
:10118c00000000000080fa00000006000400fa00d5
:10119c00000f7800110798001e009000e10f50001e
:1011ac0050003a001e0078006101b900e0ff2f00ea
:1011bc00f1ff2f00020040008380480082012000d4
:1011cc0003002000820f5000838f580098003e00cf
:1011dc000060010018003700190037001a003700b2
:1011ec001b0037001c0037001d0037009200370031
:1011fc001d0037001e0037001f003700200037008d
:10120c008d00370020003700210037002200370006
:10121c002300370024003700870037008600370092
:10122c002300370024003700250037002600370044
:10123c0027003700290037006840a8007f003700de
:10124c006860a8007d0037006880a8007b0037002c
:10125c0068a0a8007900370068c0a80077003700a4
:10126c0068e0a800750037006bc0a8007300370059
:10127c006ba0a800710037006820a8006f00370031
:10128c006800a8006d0037006b60a8006b00370089
:10129c006b00a800690037006ae0a80067003700ff
:1012ac006ac0a800650037006aa0a8006300370078
:1012bc006a00a8006100370069e0a8005f003700f1
:1012cc0069c0a8005d00370069a0a8005b0037006a
:1012dc006980a80000000000580037006960a80071
:1012ec00560037001e0090000000e00053003a004a
:1012fc001e0078006101b900e0ff2f00f1ff2f0004
:10130c00020040008380480082012000030020007e
:10131c00820f5000838f580048003e00006001008f
:10132c0018003700190037001a0037001b0037006f
:10133c001c0037001d003700400037001d0037002f
:10134c001e0037001f003700200037003b0037001d
:10135c00200037002100370022003700230037001f
:10136c0024003700350037003400370023003700e5
:10137c0024003700250037002600370027003700ef
:10138c00280037006840a9002c0037006860a900cd
:10139c002a0037006880a9002800370068a0a9003f
:1013ac002600370068c0a9002400370068e0a900b7
:1013bc00220037006bc0a900200037006ba0a900e9
:1013cc001e0037006820a9001c0037006800a90027
:1013dc001a0037006b60a900180037006b00a900d9
:1013ec00160037006ae0a900140037006ac0a90093
:1013fc00120037006aa0a900100037006a00a9008b
:10140c000e00370069e0a9000c00370069c0a90084
:10141c000a00370069a0a900080037006980a900fc
:10142c00060037006960a9000000000003003700c7
:10143c000000000001003700000000000080fa00ee
:10144c00000006000000fa002200200080072000a7
:10145c00a10920003374200080497800814978006c
:10146c0082497800120020006004200071052000e1
:10147c0023742000804978008149780082497800e3
:10148c000080fa00000006000200fa00000f78004d
:10149c009e00780000052000808f50001e003a004e
:1014ac00313a800000e02f00808060006002200054
:1014bc0001007000303a8800213a8000f0f32f00d0
:1014cc0000806000203a8800213a800000fe2f0046
:1014dc0000806000203a8800320020008007200045
:1014ec00a1092000337420008049780081497800dc
:1014fc008249780012002000600420007105200051
:10150c002374200080497800814978008249780052
:10151c00000000000100370000000000113a8000bc
:10152c00000027008080600000002300808f5000a6
:10153c00faff3a0000000000113a8000000220007f
:10154c00008060000000e000fbff32000080fa0029
:10155c00000006000000fa00e8fd0700f2c6b30028
:10156c0041c6b300a0012000edfd0700a001200042
:10157c002dfd07000080ea0080007800a00120000b
:08158c0003fc0700f9ff370022
:020000040000fa
:0200000401f009
:04000000ffff0000fe
:020000040000fa
:0200000401f009
:04000400ffff0000fa
:020000040000fa
:0200000401f009
:04000800ffff0000f6
:020000040000fa
:0200000401f009
:04000c00820000006e
:020000040000fa
:0200000401f009
:0400100005000000e7
:020000040000fa
:0200000401f009
:040014005f00000089
:020000040000fa
:0200000401f009
:04001800f7000000ed
:020000040000fa
:0200000401f009
:04001c00dfff000002
:00000001FF
